:100000000C945C000C9479000C9479000C947900A9
:100010000C9479000C9479000C9479000C9479007C
:100020000C9479000C9437010C9479000C947900AD
:100030000C9479000C9479000C9479000C9479005C
:100040000C94ED000C9479000C9479000C947900D8
:100050000C9479000C9479000C9479000C9479003C
:100060000C9479000C947900000000080002010053
:100070000003040700000000000000000000000072
:10008000250028002B0000000000240027002A0083
:10009000040404040404040402020202020203032E
:1000A0000303030301020408102040800102040836
:1000B000102001020408102011241FBECFEFD8E049
:1000C000DEBFCDBF11E0A0E0B1E0ECEDF4E002C096
:1000D00005900D92A830B107D9F721E0A8E0B1E072
:1000E00001C01D92A032B207E1F70E949D010C945D
:1000F0006C020C94000090E0FC01E859FF4F249141
:10010000FC01EC55FF4F3491FC01E057FF4FE491A7
:10011000EE23C9F0222339F0233001F1A8F4213075
:1001200019F1223029F1F0E0EE0FFF1FE458FF4FE4
:10013000A591B4918FB7F894EC91611126C03095D8
:100140003E233C938FBF08952730A9F02830C9F093
:10015000243049F7809180008F7D03C0809180001A
:100160008F7780938000DFCF84B58F7784BDDBCF1E
:1001700084B58F7DFBCF8091B0008F778093B000E6
:10018000D2CF8091B0008F7DF9CF3E2BDACFCF93C5
:10019000DF93C0911501D0911601FE01E050FF4F91
:1001A00060E080810E947B00C730D1058CF42196ED
:1001B000D0931601C0931501E0911501F09116013D
:1001C000E050FF4F61E08081DF91CF910C947B0084
:1001D0001092160110921501EFCF1F920F920FB6D9
:1001E0000F9211242F933F938F939F93AF93BF93BD
:1001F00080911C0190911D01A0911E01B0911F01E1
:1002000030911B0123E0230F2D3758F50196A11DD6
:10021000B11D20931B0180931C0190931D01A0939D
:100220001E01B0931F018091170190911801A091B8
:100230001901B0911A010196A11DB11D80931701FA
:1002400090931801A0931901B0931A01BF91AF9137
:100250009F918F913F912F910F900FBE0F901F9004
:10026000189526E8230F0296A11DB11DD2CF1F922B
:100270000F920FB60F9211242F933F934F935F93DA
:100280006F937F938F939F93AF93BF93EF93FF935E
:1002900080910E0190910F018093B2008091110125
:1002A00090911201A0911301B09114010196A11D2A
:1002B000B11D8093110190931201A0931301B0938B
:1002C000140140911101509112016091130170913C
:1002D000140180910A0190910B01A0910C01B09141
:1002E0000D01481759076A077B07B0F0809110018C
:1002F000811112C081E080931001109211011092BF
:1003000012011092130110921401E0910801F09172
:100310000901099510921001FF91EF91BF91AF91E2
:100320009F918F917F916F915F914F913F912F910D
:100330000F900FBE0F901F901895789484B582602F
:1003400084BD84B5816084BD85B5826085BD85B579
:10035000816085BD80916E00816080936E001092F7
:100360008100809181008260809381008091810072
:100370008160809381008091800081608093800003
:100380008091B10084608093B1008091B000816061
:100390008093B00080917A00846080937A0080918D
:1003A0007A00826080937A0080917A0081608093E5
:1003B0007A0080917A00806880937A001092C10060
:1003C000C0E0D1E0899190E0FC01EC55FF4F249111
:1003D00080579F4FFC018491882399F090E0880F0B
:1003E000991FFC01EA57FF4FA591B491FC01E45815
:1003F000FF4F859194918FB7F894EC91E22BEC9399
:100400008FBF60E0FE01319780810E947B00F1E0A8
:10041000C830DF07B9F6E0911501F0911601E05000
:10042000FF4F61E080810E947B00809170008E7F91
:10043000809370008091B0008C7F8093B000809199
:10044000B100877F8093B1008091B6008F7D80934B
:10045000B600809170008D7F809370008091B10014
:1004600084608093B1008091B1008C7F8093B10053
:1004700086E090E090930F0180930E0188EE93E068
:10048000A0E0B0E080930A0190930B01A0930C01CF
:10049000B0930D0187EC90E09093090180930801DF
:1004A0001092110110921201109213011092140176
:1004B0001092100180910E0190910F018093B20073
:1004C00080917000816080937000C0E0D0E0209740
:0C04D000F1F30E940000FBCFF894FFCF76
:0804DC000908070605040302EC
:00000001FF
